S0140000706F7765722D737570706C792E7372656309
S11300000C94FE000C9408010C9408010C94080153
S11300100C9408010C9408010C9408010C94080138
S11300200C9408010C9408010C9408010C94080128
S11300300C9408010C9408010C9408010C94080118
S11300400C9408010C9408010C9408010C94080108
S11300500C9408010C9408010C9408010C940801F8
S11300600C9408010C9408010C9408010C940801E8
S11300700C9408010C9408010C9408010C940801D8
S11300800C9408010C9408010C9408010C940801C8
S11300900C9408010C9408010C9408010C940801B8
S11300A00C9408010C9408010C9408010C940801A8
S11300B00C9408010C9408010C9408010C94080198
S11300C00C9408010C9408010C9408010C94080188
S11300D00C9408010C9408010C9408010C94080178
S11300E00C9408010C9408010C9408010C94080168
S11300F00C9408010C9408010C9408010C94080158
S11301000C9408010C9408010C9408010C94080147
S11301100C9408010C9408010C9408010C94080137
S11301200C9408010C9408010C9408010C94080127
S11301300C9408010C9408010C9408010C94080117
S11301400C9408010C9408010C9408010C94080107
S11301500C9408010C9408010C9408010C940801F7
S11301600C9408010C9408010C9408010C940801E7
S11301700C9408010C9408010C9408010C940801D7
S11301800C9408010C9408010C9408010C940801C7
S11301900C9408010C9408010C9408010C940801B7
S11301A00C9408010C9408010C9408010C940801A7
S11301B00C9408010C9408010C9408010C94080197
S11301C00C9408010C9408010C9408010C94080187
S11301D00C9408010C9408010C9408010C94080177
S11301E00C9408010C9408010C9408010C94080167
S11301F00C9408010C9408010C94080111241FBEEE
S1130200CFEFCDBFDFE2DEBF0E9420010C943201AC
S11302100C94000081E08093400008958CE080936A
S1130220610681E08093420683E0809362068FE05A
S11302308093820688E180939206809393060895C2
S11302400E940A010E940E01E8E8F6E0C6E4D6E046
S113025092E0A5E4B6E0808182FF02C09C93FBCFCC
S10B02609883F9CFF894FFCF55
S9030000FC
