:100000000C94FE000C9413010C9413010C94130136
:100010000C9413010C9413010C9413010C94130110
:100020000C9413010C9413010C9413010C94130100
:100030000C9413010C9413010C9413010C941301F0
:100040000C9413010C9413010C9413010C941301E0
:100050000C9413010C9413010C9413010C941301D0
:100060000C9413010C9413010C9413010C941301C0
:100070000C9413010C9413010C9413010C941301B0
:100080000C9413010C9413010C9413010C941301A0
:100090000C9413010C9413010C9413010C94130190
:1000A0000C9413010C9413010C9413010C94130180
:1000B0000C9413010C9413010C9413010C94130170
:1000C0000C9413010C9413010C9413010C94130160
:1000D0000C9413010C9413010C9413010C94130150
:1000E0000C9413010C9413010C9413010C94130140
:1000F0000C9413010C9413010C9413010C94130130
:100100000C9413010C9413010C9413010C9413011F
:100110000C9413010C9413010C9413010C9413010F
:100120000C9413010C9413010C9413010C941301FF
:100130000C9413010C9413010C9413010C941301EF
:100140000C9413010C9413010C9413010C941301DF
:100150000C9413010C9413010C9413010C941301CF
:100160000C9413010C9413010C9413010C941301BF
:100170000C9413010C9413010C9413010C941301AF
:100180000C9413010C9413010C9413010C9413019F
:100190000C9413010C9413010C9413010C9413018F
:1001A0000C9413010C9413010C9413010C9413017F
:1001B0000C9413010C9413010C9413010C9413016F
:1001C0000C9413010C9413010C9413010C9413015F
:1001D0000C9413010C9413010C9413010C9413014F
:1001E0000C9413010C9413010C9413010C9413013F
:1001F0000C9413010C9413010C94130111241FBED1
:10020000CFEFCDBFDFE2DEBF14E2A0E0B0E2E6E672
:10021000F5E002C005900D92A030B107D9F70E9419
:100220002F010C94B1020C94000081E080934000F7
:1002300008958CEB8093610681E08093420683E011
:10024000809362068FE08093820688E18093900617
:1002500080939106809392068093930608950E945E
:1002600015010E9419011F9282E08F931F92D1E025
:10027000DF931F9217E01F931F9286E08F931F92C8
:10028000C5E0CF93CF931F920E9403021F9284E098
:100290008F931F921F931F92CF9383E08F93DF93CF
:1002A0000E9403020E947D010E94DC018DB79EB76F
:1002B00044968DBF9EBFE8E8F6E0C6E4D6E092E043
:1002C000A5E4B6E0808182FF02C09C93FBCF9883B7
:1002D000F9CF1F93CF93DF93C5E6D6E010E11883E3
:1002E00098E190936606682F81E090E00E949C025E
:1002F0001883DF91CF911F910895E5E6F6E084E041
:10030000808300000000000000008093660600006B
:1003100000000000000000000000000000008083DA
:100320008EEA0E94690185ED0E94690180E80E94C1
:10033000690188EA0E9469018FE30E94690183EDE7
:100340000E94690180E00E94690180E40E946901C5
:100350008DE80E94690184E10E94690180E20E94A7
:10036000690180E00E94690181EA0E94690188ECCC
:100370000E9469018AED0E94690182E10E9469017F
:1003800081E80E9469018FEC0E94690189ED0E9459
:10039000690181EF0E9469018BED0E94690180E48F
:1003A0000E94690184EA0E94690186EA0E9469014B
:1003B0008FEA0E94690108950F931F93CF93DF93F3
:1003C00080E00E94690180E10E94690180E40E944E
:1003D000690188E18093650680E180936606C0E04C
:1003E000D0E200E014E2699181E090E00E949C027A
:1003F000C017D107C1F780E180936506DF91CF91E7
:100400001F910F910895EF92FF920F931F93CF9337
:10041000DF93CDB7DEB799859E01255F3F4FF90188
:10042000992321F0913009F440C07FC0C9010296A0
:1004300021E030E00B8402C0220F331F0A94E2F760
:10044000209341062A85622F70E0615071091616CB
:1004500017063CF520E0A1E0B0E001E416E00F2E25
:10046000F2E4EF2EF6E0FF2EF02DFC013081029633
:10047000363049F4AD0102C0440F551F3A95E2F7FA
:10048000F701408308C0AD0102C0440F551F3A95E3
:10049000E2F7F80140832F5F422F50E046175707DD
:1004A00024F380E58093C00840C0C9010296A0E40F
:1004B000B6E04C9121E030E0008002C0220F331FF3
:1004C0000A94E2F7242B2C93FA856F2F70E0615089
:1004D00071091616170634F520E001E010E00F2E22
:1004E000F2E4EF2EF6E0FF2EF02DFC0130810296B3
:1004F000363049F4A80102C0440F551F3A95E2F77F
:10050000F701408309C0EC91A80102C0440F551FB8
:100510003A95E2F74E2B4C932F5F422F50E046174F
:1005200057071CF380E58093C009DF91CF911F919D
:100530000F91FF90EF900895009719F0019749F0FF
:1005400008956093C308E2ECF8E080818823ECF71B
:1005500008956093C309E2ECF9E080818823ECF709
:060560000895F894FFCF9E
:100566000000000000000000000000000000000085
:100576000000000000000000000000000000000075
:100586000000000000000000000000000000000065
:1005960000000000000000000000000000000080D5
:1005A6008080000000000000000000000000000045
:1005B600008080C0C00000000000000000000000B5
:1005C6000000000000000000000000000000000025
:1005D6000000000000000000000000000000000015
:1005E6000000000000000000000000000000000005
:1005F6000000000080C0E0F0F8FCF8E00000000019
:100606000000000000000000000000000080808064
:10061600808000808000000000808080808000FF55
:10062600FFFF0000000080808080000080800000C6
:1006360080FFFF8080008080008080808000808036
:100646000000000000808000008C8E84000080F88E
:10065600F8F8800000000000000000000000000024
:10066600F0F0F0F0F0F0F0F0F0F0F0F0E0E0C08044
:1006760000E0FCFEFFFFFF7FFFFFFFFFFF00000023
:100686000000000000000000000000FEFFC701019E
:10069600010183FFFF00007CFEC70101010183FF0A
:1006A600FFFF0038FEC78301010183C7FFFF00007B
:1006B60001FFFF010100FFFF0701010100007FFFAD
:1006C60080000000FFFF7F0000FFFFFF000001FF2A
:1006D600FFFF010000000000000000000000000015
:1006E600030F3F7F7FFFFFFFFFFFFFFFE7C7C78FB8
:1006F6008F9FBFFFFFC3C0F0FFFFFFFFFFFCFCFCA7
:10070600FCFCFCFCFCF8F8F0F0E0C000010303037D
:1007160003030103030000000001030303030101B7
:1007260003010000000103030303010103030000AA
:1007360000030300000003030000000000000001A6
:10074600030303030301000000010301000000038B
:10075600030100000000000000000000000000008F
:1007660000000080C0E0F0F9FFFFFFFFFF3F1F0F12
:1007760087C7F7FFFF1F1F3DFCF8F8F8F87C7DFFE1
:10078600FFFFFFFFFFFFFF7F3F0F07003030000036
:100796000000000000000000000000000000000053
:1007A60000000000FEFEFC0000000000000000004B
:1007B60000000000000000000000000000E0C00093
:1007C60000000000000000000000303000000000C3
:1007D6000000000000000000000000000000000013
:1007E60000C0FEFFFFFFFFFFFFFFFFFF7F7F3F1FF2
:1007F6000F071F7FFFFFF8F8FFFFFFFFFFFEF8E080
:10080600000000010000000000000000FEFE0000E5
:1008160000FCFEFC0C06060EFCF80000F0F81C0EB0
:100826000606060CFFFFFF0000FEFE00000000FCAF
:10083600FEFC00183C7E66E6CE84000006FFFF063E
:1008460006FCFEFC0C0606060000FEFE0000C0F8D4
:10085600FC4E4646464E7C7840183C76E6CECC802A
:100866000000000000000000000000000000000082
:100876000000000001070F1F1F3F3F3F3F1F0F03F0
:100886000000000000000000000000000F0F000044
:10089600000F0F0F000000000F0F000003070E0CE3
:1008A60018180C060F0F0F0000010F0E0C180C0F76
:1008B600070100040E0C180C0F070000000F0F00B4
:1008C600000F0F0F0000000000000F0F00000007D0
:1008D600070C0C181C0C060600040E0C180C0F074F
:1008E6000000000000000000000000000000000002
:1008F60000000000000000000000000000000000F2
:1009060000000000000000000000000000000000E1
:1009160000000000000000000000000000000000D1
:1009260000000000000000000000000000000000C1
:1009360000000000000000000000000000000000B1
:1009460000000000000000000000000000000000A1
:100956000000000000000000000000000000000091
:00000001FF
